:100000000C9437000C9442030C9442030C9442036A
:100010000C9442030C9442030C9442030C9442034C
:100020000C9442030C9442030C9442030C9442033C
:100030000C9442030C94CB020C9442030C944203A4
:100040000C9455020C9442030C940D020C94420340
:100050000C9442030C9442030C9442030C9442030C
:100060000C9442030C9442030100013D80001124D2
:100070001FBECFEFD8E0DEBFCDBFE8E6F0E040E046
:1000800017C0B591A59135912591059107FD0CC03B
:1000900095918591EF01F92FE82F05900D92A21708
:1000A000B307D9F7FE0104C01D92A217B307E1F709
:1000B000ED36F40731F70E94A8020C940103F8947E
:0200C000FFCF70
:1000C20010C00E94230358F00E941C0340F029F440
:1000D2005F3F29F00C94310351110C942B030C94C3
:1000E2003F030E94330268F39923B1F3552391F33E
:1000F200951B550BBB27AA2762177307840738F095
:100102009F5F5F4F220F331F441FAA1FA9F335D0F1
:100112000E2E3AF0E0E832D091505040E695001CA5
:10012200CAF72BD0FE2F29D0660F771F881FBB1F5F
:10013200261737074807AB07B0E809F0BB0B802D3D
:10014200BF01FF2793585F4F3AF09E3F510578F069
:100152000C9431030C942B035F3FE4F3983ED4F3E9
:10016200869577956795B795F7959F5FC9F7880F3D
:10017200911D9695879597F90895E1E0660F771F8F
:10018200881FBB1F621773078407BA0720F0621B20
:0E019200730B840BBA0BEE1F88F7E0950895EF
:1001A0000FC00E941C0338F00E94230320F0952307
:1001B00011F00C9431030C943F0311240C942B0385
:1001C0000E94330270F3959FC1F3950F50E0551FC5
:1001D000629FF001729FBB27F00DB11D639FAA279C
:1001E000F00DB11DAA1F649F6627B00DA11D661FEB
:1001F000829F2227B00DA11D621F739FB00DA11D0C
:10020000621F839FA00D611D221F749F3327A00DC5
:10021000611D231F849F600D211D822F762F6A2F61
:1002200011249F5750409AF0F1F088234AF0EE0FC6
:10023000FF1FBB1F661F771F881F91505040A9F7F3
:100240009E3F510580F00C9431030C942B035F3FCB
:10025000E4F3983ED4F3869577956795B795F7952F
:10026000E7959F5FC1F7FE2B880F911D96958795A7
:0402700097F908955D
:1002740011C00E941C0338F00E94230320F039F4BB
:100284009F3F19F426F40C943F030EF4E095E7FB2A
:100294000C943103E92F0E94330258F3BA17620712
:1002A40073078407950720F079F4A6F50C942A03C4
:1002B4000EF4E0950B2EBA2FA02D0B01B90190017D
:1002C4000C01CA01A0011124FF27591B99F0593FC1
:1002D40050F4503E68F11A16F040A22F232F342F09
:1002E4004427585FF3CF469537952795A795F04057
:1002F4005395C9F77EF41F16BA0B620B730B840B6C
:10030400BAF09150A1F0FF0FBB1F661F771F881F23
:10031400C2F70EC0BA0F621F731F841F48F487957B
:1003240077956795B795F7959E3F08F0B0CF93956D
:0E033400880F08F09927EE0F9795879508958A
:10034200E89409C097FB3EF490958095709561956D
:100352007F4F8F4F9F4F9923A9F0F92F96E9BB2723
:100362009395F695879577956795B795F111F8CF9F
:10037200FAF4BB0F11F460FF1BC06F5F7F4F8F4F0A
:100382009F4F16C0882311F096E911C0772321F000
:100392009EE8872F762F05C0662371F096E8862F98
:1003A20070E060E02AF09A95660F771F881FDAF7EF
:0A03B200880F9695879597F9089536
:1003BC000E943B0288F09F5798F0B92F9927B751AC
:1003CC00B0F0E1F0660F771F881F991F1AF0BA95ED
:1003DC00C9F714C0B13091F00E942A03B1E008951E
:1003EC000C942A03672F782F8827B85F39F0B93F10
:1003FC00CCF3869577956795B395D9F73EF49095A0
:0E040C008095709561957F4F8F4F9F4F08959B
:10041A001F920F920FB60F9211248F939F93EF930F
:10042A00FF9310923B018091C600E091190191E07F
:10043A009E0F90931901F0E0E050FF4F8083809166
:10044A001901893111F410921901FF91EF919F91CD
:0C045A008F910F900FBE0F901F9018950F
:1004660057FD9058440F551F59F05F3F71F047955F
:10047600880F97FB991F61F09F3F79F08795089544
:10048600121613061406551FF2CF4695F1DF08C063
:10049600161617061806991FF1CF86957105610580
:0404A6000894089519
:1004AA001F920F920FB60F9211248F9380913B01E6
:1004BA00803110F01092190180913B018C3930F48F
:1004CA0080913B018F5F80933B0102C0109219011A
:0C04DA008F910F900FBE0F901F9018958F
:1004E600BC0180E090E00E94A10120E030E044E3FE
:1004F60053E40E94370320E030E84BE355E40E94C2
:100506003B0320E030EE49EF54E40E9416030E94BC
:0A051600DE01CB010E94F6020895F9
:1005200086E084B982E88093800081E080936F0048
:1005300087E0809389008FEC809388008CE980931A
:1005400087008FE3809386008AE18093810008957D
:100550000E94E9020E949002809120019091210165
:1005600096958795969587959695879599270E9454
:040570007302F2CF51
:10057400092E0394000C11F4882352F0BB0F40F4AD
:10058400BF2B11F460FF04C06F5F7F4F8F4F9F4FED
:020594000895C8
:100596001F920F920FB60F9211248F9381E08093D2
:0E05A6003C018F910F900FBE0F901F90189583
:1005B40089E090E09093C5008093C40088E980931B
:0E05C400C100E2ECF0E080818862808308953F
:1005D20080E284B984E08AB917B88FEF88B90E94A3
:0A05E200DA020E940C0378940895D9
:1005EC0020913C01213031F4909389008093880054
:0605FC0010923C0108957D
:10060200EC010E9447030E944603CE010E94480368
:06061200CE010E9444032A
:1006180085B5826085BDEEE6F0E0808181608083EB
:02062800089533
:0E062A005058BB27AA270E943A010C94BA022E
:0E06380000240A9416161706180609060895DF
:0E06460000240A9412161306140605060895E1
:0E065400E894BB2766277727CB0197F9089516
:0C06620097F99F6780E870E060E0089561
:08066E000E9461000C94BA0225
:080676000E94D0000C94BA02AE
:06067E009FEF80EC0895DF
:040684000C940000D2
:040688000E945F006D
:02068C000895CF
:02068E000895CD
:020690000895CB
:00000001FF
